{
  "contractName": "ArtFactory",
  "abi": [
    {
      "inputs": [],
      "payable": false,
      "stateMutability": "nonpayable",
      "type": "constructor"
    },
    {
      "anonymous": false,
      "inputs": [
        {
          "indexed": true,
          "internalType": "address",
          "name": "_owner",
          "type": "address"
        },
        {
          "indexed": true,
          "internalType": "address",
          "name": "_approved",
          "type": "address"
        },
        {
          "indexed": true,
          "internalType": "uint256",
          "name": "_tokenId",
          "type": "uint256"
        }
      ],
      "name": "Approval",
      "type": "event"
    },
    {
      "anonymous": false,
      "inputs": [
        {
          "indexed": true,
          "internalType": "address",
          "name": "owner",
          "type": "address"
        },
        {
          "indexed": true,
          "internalType": "address",
          "name": "operator",
          "type": "address"
        },
        {
          "indexed": false,
          "internalType": "bool",
          "name": "approved",
          "type": "bool"
        }
      ],
      "name": "ApprovalForAll",
      "type": "event"
    },
    {
      "anonymous": false,
      "inputs": [
        {
          "indexed": true,
          "internalType": "address",
          "name": "_from",
          "type": "address"
        },
        {
          "indexed": true,
          "internalType": "address",
          "name": "_to",
          "type": "address"
        },
        {
          "indexed": true,
          "internalType": "uint256",
          "name": "_tokenId",
          "type": "uint256"
        }
      ],
      "name": "Transfer",
      "type": "event"
    },
    {
      "anonymous": false,
      "inputs": [
        {
          "indexed": false,
          "internalType": "string",
          "name": "_name",
          "type": "string"
        },
        {
          "indexed": false,
          "internalType": "string",
          "name": "_ipfsHash",
          "type": "string"
        },
        {
          "indexed": false,
          "internalType": "string",
          "name": "_description",
          "type": "string"
        },
        {
          "indexed": false,
          "internalType": "uint256",
          "name": "_amount",
          "type": "uint256"
        },
        {
          "indexed": false,
          "internalType": "address",
          "name": "ownerAddress",
          "type": "address"
        }
      ],
      "name": "artWorkAdded",
      "type": "event"
    },
    {
      "constant": true,
      "inputs": [
        {
          "internalType": "uint256",
          "name": "",
          "type": "uint256"
        }
      ],
      "name": "artToOwner",
      "outputs": [
        {
          "internalType": "address",
          "name": "",
          "type": "address"
        }
      ],
      "payable": false,
      "stateMutability": "view",
      "type": "function"
    },
    {
      "constant": true,
      "inputs": [
        {
          "internalType": "address",
          "name": "owner",
          "type": "address"
        }
      ],
      "name": "balanceOf",
      "outputs": [
        {
          "internalType": "uint256",
          "name": "",
          "type": "uint256"
        }
      ],
      "payable": false,
      "stateMutability": "view",
      "type": "function"
    },
    {
      "constant": true,
      "inputs": [],
      "name": "baseURI",
      "outputs": [
        {
          "internalType": "string",
          "name": "",
          "type": "string"
        }
      ],
      "payable": false,
      "stateMutability": "view",
      "type": "function"
    },
    {
      "constant": true,
      "inputs": [
        {
          "internalType": "uint256",
          "name": "tokenId",
          "type": "uint256"
        }
      ],
      "name": "getApproved",
      "outputs": [
        {
          "internalType": "address",
          "name": "",
          "type": "address"
        }
      ],
      "payable": false,
      "stateMutability": "view",
      "type": "function"
    },
    {
      "constant": true,
      "inputs": [
        {
          "internalType": "address",
          "name": "owner",
          "type": "address"
        },
        {
          "internalType": "address",
          "name": "operator",
          "type": "address"
        }
      ],
      "name": "isApprovedForAll",
      "outputs": [
        {
          "internalType": "bool",
          "name": "",
          "type": "bool"
        }
      ],
      "payable": false,
      "stateMutability": "view",
      "type": "function"
    },
    {
      "constant": true,
      "inputs": [],
      "name": "name",
      "outputs": [
        {
          "internalType": "string",
          "name": "",
          "type": "string"
        }
      ],
      "payable": false,
      "stateMutability": "view",
      "type": "function"
    },
    {
      "constant": true,
      "inputs": [
        {
          "internalType": "uint256",
          "name": "tokenId",
          "type": "uint256"
        }
      ],
      "name": "ownerOf",
      "outputs": [
        {
          "internalType": "address",
          "name": "",
          "type": "address"
        }
      ],
      "payable": false,
      "stateMutability": "view",
      "type": "function"
    },
    {
      "constant": false,
      "inputs": [
        {
          "internalType": "address",
          "name": "to",
          "type": "address"
        },
        {
          "internalType": "bool",
          "name": "approved",
          "type": "bool"
        }
      ],
      "name": "setApprovalForAll",
      "outputs": [],
      "payable": false,
      "stateMutability": "nonpayable",
      "type": "function"
    },
    {
      "constant": true,
      "inputs": [
        {
          "internalType": "bytes4",
          "name": "interfaceId",
          "type": "bytes4"
        }
      ],
      "name": "supportsInterface",
      "outputs": [
        {
          "internalType": "bool",
          "name": "",
          "type": "bool"
        }
      ],
      "payable": false,
      "stateMutability": "view",
      "type": "function"
    },
    {
      "constant": true,
      "inputs": [],
      "name": "symbol",
      "outputs": [
        {
          "internalType": "string",
          "name": "",
          "type": "string"
        }
      ],
      "payable": false,
      "stateMutability": "view",
      "type": "function"
    },
    {
      "constant": true,
      "inputs": [
        {
          "internalType": "uint256",
          "name": "index",
          "type": "uint256"
        }
      ],
      "name": "tokenByIndex",
      "outputs": [
        {
          "internalType": "uint256",
          "name": "",
          "type": "uint256"
        }
      ],
      "payable": false,
      "stateMutability": "view",
      "type": "function"
    },
    {
      "constant": true,
      "inputs": [
        {
          "internalType": "address",
          "name": "owner",
          "type": "address"
        },
        {
          "internalType": "uint256",
          "name": "index",
          "type": "uint256"
        }
      ],
      "name": "tokenOfOwnerByIndex",
      "outputs": [
        {
          "internalType": "uint256",
          "name": "",
          "type": "uint256"
        }
      ],
      "payable": false,
      "stateMutability": "view",
      "type": "function"
    },
    {
      "constant": true,
      "inputs": [
        {
          "internalType": "uint256",
          "name": "tokenId",
          "type": "uint256"
        }
      ],
      "name": "tokenURI",
      "outputs": [
        {
          "internalType": "string",
          "name": "",
          "type": "string"
        }
      ],
      "payable": false,
      "stateMutability": "view",
      "type": "function"
    },
    {
      "constant": true,
      "inputs": [],
      "name": "totalSupply",
      "outputs": [
        {
          "internalType": "uint256",
          "name": "",
          "type": "uint256"
        }
      ],
      "payable": false,
      "stateMutability": "view",
      "type": "function"
    },
    {
      "constant": false,
      "inputs": [
        {
          "internalType": "address",
          "name": "from",
          "type": "address"
        },
        {
          "internalType": "address",
          "name": "to",
          "type": "address"
        },
        {
          "internalType": "uint256",
          "name": "tokenId",
          "type": "uint256"
        }
      ],
      "name": "transferFrom",
      "outputs": [],
      "payable": false,
      "stateMutability": "nonpayable",
      "type": "function"
    },
    {
      "constant": false,
      "inputs": [
        {
          "internalType": "string",
          "name": "_name",
          "type": "string"
        },
        {
          "internalType": "string",
          "name": "_ipfsHash",
          "type": "string"
        },
        {
          "internalType": "string",
          "name": "_description",
          "type": "string"
        },
        {
          "internalType": "uint256",
          "name": "_amount",
          "type": "uint256"
        }
      ],
      "name": "addArt",
      "outputs": [],
      "payable": false,
      "stateMutability": "nonpayable",
      "type": "function"
    },
    {
      "constant": false,
      "inputs": [
        {
          "internalType": "address",
          "name": "_to",
          "type": "address"
        },
        {
          "internalType": "uint256",
          "name": "_tokenId",
          "type": "uint256"
        }
      ],
      "name": "approve",
      "outputs": [],
      "payable": false,
      "stateMutability": "nonpayable",
      "type": "function"
    },
    {
      "constant": false,
      "inputs": [
        {
          "internalType": "address",
          "name": "from",
          "type": "address"
        },
        {
          "internalType": "address",
          "name": "to",
          "type": "address"
        },
        {
          "internalType": "uint256",
          "name": "tokenId",
          "type": "uint256"
        }
      ],
      "name": "safeTransferFrom",
      "outputs": [],
      "payable": false,
      "stateMutability": "nonpayable",
      "type": "function"
    },
    {
      "constant": false,
      "inputs": [
        {
          "internalType": "address",
          "name": "_from",
          "type": "address"
        },
        {
          "internalType": "address",
          "name": "_to",
          "type": "address"
        },
        {
          "internalType": "uint256",
          "name": "_tokenId",
          "type": "uint256"
        },
        {
          "internalType": "bytes",
          "name": "_data",
          "type": "bytes"
        }
      ],
      "name": "safeTransferFrom",
      "outputs": [],
      "payable": false,
      "stateMutability": "nonpayable",
      "type": "function"
    },
    {
      "constant": true,
      "inputs": [
        {
          "internalType": "uint256",
          "name": "tokenId",
          "type": "uint256"
        }
      ],
      "name": "getOwner",
      "outputs": [
        {
          "internalType": "address",
          "name": "",
          "type": "address"
        }
      ],
      "payable": false,
      "stateMutability": "view",
      "type": "function"
    },
    {
      "constant": true,
      "inputs": [],
      "name": "getAllTokens",
      "outputs": [
        {
          "components": [
            {
              "internalType": "uint256",
              "name": "tokenId",
              "type": "uint256"
            },
            {
              "internalType": "string",
              "name": "name",
              "type": "string"
            },
            {
              "internalType": "string",
              "name": "ipfsHash",
              "type": "string"
            },
            {
              "internalType": "string",
              "name": "description",
              "type": "string"
            },
            {
              "internalType": "uint256",
              "name": "price",
              "type": "uint256"
            },
            {
              "internalType": "address",
              "name": "owner",
              "type": "address"
            }
          ],
          "internalType": "struct ArtFactory.Art[]",
          "name": "",
          "type": "tuple[]"
        }
      ],
      "payable": false,
      "stateMutability": "view",
      "type": "function"
    }
  ],
  "bytecode": "0x60806040523480156200001157600080fd5b506040518060400160405280600681526020017f4172744e667400000000000000000000000000000000000000000000000000008152506040518060400160405280600681526020017f4152544e465400000000000000000000000000000000000000000000000000008152508181620000986301ffc9a760e01b6200011c60201b60201c565b620000b06380ac58cd60e01b6200011c60201b60201c565b620000c863780e9d6360e01b6200011c60201b60201c565b8160099080519060200190620000e0929190620001f4565b5080600a9080519060200190620000f9929190620001f4565b5062000112635b5e139f60e01b6200011c60201b60201c565b5050505062000318565b63ffffffff60e01b817bffffffffffffffffffffffffffffffffffffffffffffffffffffffff1916141562000188576040517f08c379a00000000000000000000000000000000000000000000000000000000081526004016200017f90620002e5565b60405180910390fd5b6001600080837bffffffffffffffffffffffffffffffffffffffffffffffffffffffff19167bffffffffffffffffffffffffffffffffffffffffffffffffffffffff1916815260200190815260200160002060006101000a81548160ff02191690831515021790555050565b828054600181600116156101000203166002900490600052602060002090601f016020900481019282601f106200023757805160ff191683800117855562000268565b8280016001018555821562000268579182015b82811115620002675782518255916020019190600101906200024a565b5b5090506200027791906200027b565b5090565b620002a091905b808211156200029c57600081600090555060010162000282565b5090565b90565b6000620002b2601c8362000307565b91507f4552433136353a20696e76616c696420696e74657266616365206964000000006000830152602082019050919050565b600060208201905081810360008301526200030081620002a3565b9050919050565b600082825260208201905092915050565b61376980620003286000396000f3fe608060405234801561001057600080fd5b50600436106101375760003560e01c80636352211e116100b8578063b10cb87a1161007c578063b10cb87a14610362578063b88d4fde14610392578063c41a360a146103ae578063c87b56dd146103de578063c97c53731461040e578063e985e9c51461042a57610137565b80636352211e146102aa5780636c0360eb146102da57806370a08231146102f857806395d89b4114610328578063a22cb4651461034657610137565b806323b872dd116100ff57806323b872dd146101f45780632a5c792a146102105780632f745c591461022e57806342842e0e1461025e5780634f6ccce71461027a57610137565b806301ffc9a71461013c57806306fdde031461016c578063081812fc1461018a578063095ea7b3146101ba57806318160ddd146101d6575b600080fd5b6101566004803603610151919081019061276e565b61045a565b60405161016391906131de565b60405180910390f35b6101746104c1565b60405161018191906131f9565b60405180910390f35b6101a4600480360361019f919081019061286b565b610563565b6040516101b19190613155565b60405180910390f35b6101d460048036036101cf9190810190612732565b6105e8565b005b6101de610699565b6040516101eb9190613463565b60405180910390f35b61020e6004803603610209919081019061262c565b6106a6565b005b610218610706565b60405161022591906131bc565b60405180910390f35b61024860048036036102439190810190612732565b6109b5565b6040516102559190613463565b60405180910390f35b6102786004803603610273919081019061262c565b610a5e565b005b610294600480360361028f919081019061286b565b610a7e565b6040516102a19190613463565b60405180910390f35b6102c460048036036102bf919081019061286b565b610ae8565b6040516102d19190613155565b60405180910390f35b6102e2610b9a565b6040516102ef91906131f9565b60405180910390f35b610312600480360361030d91908101906125c7565b610c3c565b60405161031f9190613463565b60405180910390f35b610330610cfb565b60405161033d91906131f9565b60405180910390f35b610360600480360361035b91908101906126f6565b610d9d565b005b61037c6004803603610377919081019061286b565b610f1e565b6040516103899190613155565b60405180910390f35b6103ac60048036036103a7919081019061267b565b610f51565b005b6103c860048036036103c3919081019061286b565b61106c565b6040516103d59190613155565b60405180910390f35b6103f860048036036103f3919081019061286b565b6110ae565b60405161040591906131f9565b60405180910390f35b610428600480360361042391908101906127c0565b6111f6565b005b610444600480360361043f91908101906125f0565b61142a565b60405161045191906131de565b60405180910390f35b6000806000837bffffffffffffffffffffffffffffffffffffffffffffffffffffffff19167bffffffffffffffffffffffffffffffffffffffffffffffffffffffff1916815260200190815260200160002060009054906101000a900460ff169050919050565b606060098054600181600116156101000203166002900480601f0160208091040260200160405190810160405280929190818152602001828054600181600116156101000203166002900480156105595780601f1061052e57610100808354040283529160200191610559565b820191906000526020600020905b81548152906001019060200180831161053c57829003601f168201915b5050505050905090565b600061056e826114be565b6105ad576040517f08c379a00000000000000000000000000000000000000000000000000000000081526004016105a4906133c3565b60405180910390fd5b6002600083815260200190815260200160002060009054906101000a900473ffffffffffffffffffffffffffffffffffffffff169050919050565b816011600083815260200190815260200160002060006101000a81548173ffffffffffffffffffffffffffffffffffffffff021916908373ffffffffffffffffffffffffffffffffffffffff160217905550808273ffffffffffffffffffffffffffffffffffffffff163373ffffffffffffffffffffffffffffffffffffffff167f8c5be1e5ebec7d5bd14f71427d1e84f3dd0314c0f7b2291e5b200ac8c7c3b92560405160405180910390a45050565b6000600780549050905090565b6106b76106b1611530565b82611538565b6106f6576040517f08c379a00000000000000000000000000000000000000000000000000000000081526004016106ed90613423565b60405180910390fd5b610701838383611616565b505050565b6060600e805480602002602001604051908101604052809291908181526020016000905b828210156109ac57838290600052602060002090600602016040518060c001604052908160008201548152602001600182018054600181600116156101000203166002900480601f0160208091040260200160405190810160405280929190818152602001828054600181600116156101000203166002900480156107f05780601f106107c5576101008083540402835291602001916107f0565b820191906000526020600020905b8154815290600101906020018083116107d357829003601f168201915b50505050508152602001600282018054600181600116156101000203166002900480601f0160208091040260200160405190810160405280929190818152602001828054600181600116156101000203166002900480156108925780601f1061086757610100808354040283529160200191610892565b820191906000526020600020905b81548152906001019060200180831161087557829003601f168201915b50505050508152602001600382018054600181600116156101000203166002900480601f0160208091040260200160405190810160405280929190818152602001828054600181600116156101000203166002900480156109345780601f1061090957610100808354040283529160200191610934565b820191906000526020600020905b81548152906001019060200180831161091757829003601f168201915b50505050508152602001600482015481526020016005820160009054906101000a900473ffffffffffffffffffffffffffffffffffffffff1673ffffffffffffffffffffffffffffffffffffffff1673ffffffffffffffffffffffffffffffffffffffff16815250508152602001906001019061072a565b50505050905090565b60006109c083610c3c565b8210610a01576040517f08c379a00000000000000000000000000000000000000000000000000000000081526004016109f890613283565b60405180910390fd5b600560008473ffffffffffffffffffffffffffffffffffffffff1673ffffffffffffffffffffffffffffffffffffffff1681526020019081526020016000208281548110610a4b57fe5b9060005260206000200154905092915050565b610a7983838360405180602001604052806000815250610f51565b505050565b6000610a88610699565b8210610ac9576040517f08c379a0000000000000000000000000000000000000000000000000000000008152600401610ac090613443565b60405180910390fd5b60078281548110610ad657fe5b90600052602060002001549050919050565b6000806001600084815260200190815260200160002060009054906101000a900473ffffffffffffffffffffffffffffffffffffffff169050600073ffffffffffffffffffffffffffffffffffffffff168173ffffffffffffffffffffffffffffffffffffffff161415610b91576040517f08c379a0000000000000000000000000000000000000000000000000000000008152600401610b8890613383565b60405180910390fd5b80915050919050565b6060600b8054600181600116156101000203166002900480601f016020809104026020016040519081016040528092919081815260200182805460018160011615610100020316600290048015610c325780601f10610c0757610100808354040283529160200191610c32565b820191906000526020600020905b815481529060010190602001808311610c1557829003601f168201915b5050505050905090565b60008073ffffffffffffffffffffffffffffffffffffffff168273ffffffffffffffffffffffffffffffffffffffff161415610cad576040517f08c379a0000000000000000000000000000000000000000000000000000000008152600401610ca490613363565b60405180910390fd5b610cf4600360008473ffffffffffffffffffffffffffffffffffffffff1673ffffffffffffffffffffffffffffffffffffffff16815260200190815260200160002061163a565b9050919050565b6060600a8054600181600116156101000203166002900480601f016020809104026020016040519081016040528092919081815260200182805460018160011615610100020316600290048015610d935780601f10610d6857610100808354040283529160200191610d93565b820191906000526020600020905b815481529060010190602001808311610d7657829003601f168201915b5050505050905090565b610da5611530565b73ffffffffffffffffffffffffffffffffffffffff168273ffffffffffffffffffffffffffffffffffffffff161415610e13576040517f08c379a0000000000000000000000000000000000000000000000000000000008152600401610e0a90613323565b60405180910390fd5b8060046000610e20611530565b73ffffffffffffffffffffffffffffffffffffffff1673ffffffffffffffffffffffffffffffffffffffff16815260200190815260200160002060008473ffffffffffffffffffffffffffffffffffffffff1673ffffffffffffffffffffffffffffffffffffffff16815260200190815260200160002060006101000a81548160ff0219169083151502179055508173ffffffffffffffffffffffffffffffffffffffff16610ecd611530565b73ffffffffffffffffffffffffffffffffffffffff167f17307eab39ab6107e8899845ad3d59bd9653f200f220920489ca2b5937696c3183604051610f1291906131de565b60405180910390a35050565b600f6020528060005260406000206000915054906101000a900473ffffffffffffffffffffffffffffffffffffffff1681565b3373ffffffffffffffffffffffffffffffffffffffff16600f600084815260200190815260200160002060009054906101000a900473ffffffffffffffffffffffffffffffffffffffff1673ffffffffffffffffffffffffffffffffffffffff16148061101c57503373ffffffffffffffffffffffffffffffffffffffff166011600084815260200190815260200160002060009054906101000a900473ffffffffffffffffffffffffffffffffffffffff1673ffffffffffffffffffffffffffffffffffffffff16145b61105b576040517f08c379a000000000000000000000000000000000000000000000000000000000815260040161105290613423565b60405180910390fd5b611066848484611648565b50505050565b600080600f600084815260200190815260200160002060009054906101000a900473ffffffffffffffffffffffffffffffffffffffff16905080915050919050565b60606110b9826114be565b6110f8576040517f08c379a00000000000000000000000000000000000000000000000000000000081526004016110ef90613403565b60405180910390fd5b6060600c60008481526020019081526020016000208054600181600116156101000203166002900480601f0160208091040260200160405190810160405280929190818152602001828054600181600116156101000203166002900480156111a15780601f10611176576101008083540402835291602001916111a1565b820191906000526020600020905b81548152906001019060200180831161118457829003601f168201915b505050505090506000815114156111ca57604051806020016040528060008152509150506111f1565b600b816040516020016111de929190613131565b6040516020818303038152906040529150505b919050565b60006001600e6040518060c00160405280600d5481526020018881526020018781526020018681526020018581526020013373ffffffffffffffffffffffffffffffffffffffff16815250908060018154018082558091505090600182039060005260206000209060060201600090919290919091506000820151816000015560208201518160010190805190602001906112929291906123e5565b5060408201518160020190805190602001906112af9291906123e5565b5060608201518160030190805190602001906112cc9291906123e5565b506080820151816004015560a08201518160050160006101000a81548173ffffffffffffffffffffffffffffffffffffffff021916908373ffffffffffffffffffffffffffffffffffffffff160217905550505003905033600f6000600d54815260200190815260200160002060006101000a81548173ffffffffffffffffffffffffffffffffffffffff021916908373ffffffffffffffffffffffffffffffffffffffff160217905550601060003373ffffffffffffffffffffffffffffffffffffffff1673ffffffffffffffffffffffffffffffffffffffff168152602001908152602001600020600081548092919060010191905055506113d233600d54611883565b600d600081548092919060010191905055507fa50faae99eec75c33d15db988a7bd53f3ab152eea811d5e62110d5789c9b7c80858585853360405161141b95949392919061321b565b60405180910390a15050505050565b6000600460008473ffffffffffffffffffffffffffffffffffffffff1673ffffffffffffffffffffffffffffffffffffffff16815260200190815260200160002060008373ffffffffffffffffffffffffffffffffffffffff1673ffffffffffffffffffffffffffffffffffffffff16815260200190815260200160002060009054906101000a900460ff16905092915050565b6000806001600084815260200190815260200160002060009054906101000a900473ffffffffffffffffffffffffffffffffffffffff169050600073ffffffffffffffffffffffffffffffffffffffff168173ffffffffffffffffffffffffffffffffffffffff161415915050919050565b600033905090565b6000611543826114be565b611582576040517f08c379a000000000000000000000000000000000000000000000000000000000815260040161157990613343565b60405180910390fd5b600061158d83610ae8565b90508073ffffffffffffffffffffffffffffffffffffffff168473ffffffffffffffffffffffffffffffffffffffff1614806115fc57508373ffffffffffffffffffffffffffffffffffffffff166115e484610563565b73ffffffffffffffffffffffffffffffffffffffff16145b8061160d575061160c818561142a565b5b91505092915050565b6116218383836118a1565b61162b8382611ad0565b6116358282611c6e565b505050565b600081600001549050919050565b81600e828154811061165657fe5b906000526020600020906006020160050160006101000a81548173ffffffffffffffffffffffffffffffffffffffff021916908373ffffffffffffffffffffffffffffffffffffffff1602179055506116f86001601060008573ffffffffffffffffffffffffffffffffffffffff1673ffffffffffffffffffffffffffffffffffffffff16815260200190815260200160002054611d3590919063ffffffff16565b601060008473ffffffffffffffffffffffffffffffffffffffff1673ffffffffffffffffffffffffffffffffffffffff1681526020019081526020016000208190555061178e6001601060008673ffffffffffffffffffffffffffffffffffffffff1673ffffffffffffffffffffffffffffffffffffffff16815260200190815260200160002054611d8a90919063ffffffff16565b601060008573ffffffffffffffffffffffffffffffffffffffff1673ffffffffffffffffffffffffffffffffffffffff1681526020019081526020016000208190555081600f600083815260200190815260200160002060006101000a81548173ffffffffffffffffffffffffffffffffffffffff021916908373ffffffffffffffffffffffffffffffffffffffff160217905550808273ffffffffffffffffffffffffffffffffffffffff168473ffffffffffffffffffffffffffffffffffffffff167fddf252ad1be2c89b69c2b068fc378daa952ba7f163c4a11628f55a4df523b3ef60405160405180910390a4505050565b61189d828260405180602001604052806000815250611dd4565b5050565b8273ffffffffffffffffffffffffffffffffffffffff166118c182610ae8565b73ffffffffffffffffffffffffffffffffffffffff1614611917576040517f08c379a000000000000000000000000000000000000000000000000000000000815260040161190e906133e3565b60405180910390fd5b600073ffffffffffffffffffffffffffffffffffffffff168273ffffffffffffffffffffffffffffffffffffffff161415611987576040517f08c379a000000000000000000000000000000000000000000000000000000000815260040161197e90613303565b60405180910390fd5b61199081611e2f565b6119d7600360008573ffffffffffffffffffffffffffffffffffffffff1673ffffffffffffffffffffffffffffffffffffffff168152602001908152602001600020611eed565b611a1e600360008473ffffffffffffffffffffffffffffffffffffffff1673ffffffffffffffffffffffffffffffffffffffff168152602001908152602001600020611f10565b816001600083815260200190815260200160002060006101000a81548173ffffffffffffffffffffffffffffffffffffffff021916908373ffffffffffffffffffffffffffffffffffffffff160217905550808273ffffffffffffffffffffffffffffffffffffffff168473ffffffffffffffffffffffffffffffffffffffff167fddf252ad1be2c89b69c2b068fc378daa952ba7f163c4a11628f55a4df523b3ef60405160405180910390a4505050565b6000611b286001600560008673ffffffffffffffffffffffffffffffffffffffff1673ffffffffffffffffffffffffffffffffffffffff16815260200190815260200160002080549050611d8a90919063ffffffff16565b9050600060066000848152602001908152602001600020549050818114611c15576000600560008673ffffffffffffffffffffffffffffffffffffffff1673ffffffffffffffffffffffffffffffffffffffff1681526020019081526020016000208381548110611b9557fe5b9060005260206000200154905080600560008773ffffffffffffffffffffffffffffffffffffffff1673ffffffffffffffffffffffffffffffffffffffff1681526020019081526020016000208381548110611bed57fe5b9060005260206000200181905550816006600083815260200190815260200160002081905550505b600560008573ffffffffffffffffffffffffffffffffffffffff1673ffffffffffffffffffffffffffffffffffffffff168152602001908152602001600020805480919060019003611c679190612465565b5050505050565b600560008373ffffffffffffffffffffffffffffffffffffffff1673ffffffffffffffffffffffffffffffffffffffff168152602001908152602001600020805490506006600083815260200190815260200160002081905550600560008373ffffffffffffffffffffffffffffffffffffffff1673ffffffffffffffffffffffffffffffffffffffff1681526020019081526020016000208190806001815401808255809150509060018203906000526020600020016000909192909190915055505050565b600080828401905083811015611d80576040517f08c379a0000000000000000000000000000000000000000000000000000000008152600401611d77906132e3565b60405180910390fd5b8091505092915050565b6000611dcc83836040518060400160405280601e81526020017f536166654d6174683a207375627472616374696f6e206f766572666c6f770000815250611f26565b905092915050565b611dde8383611f81565b611deb6000848484611fa2565b611e2a576040517f08c379a0000000000000000000000000000000000000000000000000000000008152600401611e21906132a3565b60405180910390fd5b505050565b600073ffffffffffffffffffffffffffffffffffffffff166002600083815260200190815260200160002060009054906101000a900473ffffffffffffffffffffffffffffffffffffffff1673ffffffffffffffffffffffffffffffffffffffff1614611eea5760006002600083815260200190815260200160002060006101000a81548173ffffffffffffffffffffffffffffffffffffffff021916908373ffffffffffffffffffffffffffffffffffffffff1602179055505b50565b611f0560018260000154611d8a90919063ffffffff16565b816000018190555050565b6001816000016000828254019250508190555050565b6000838311158290611f6e576040517f08c379a0000000000000000000000000000000000000000000000000000000008152600401611f6591906131f9565b60405180910390fd5b5060008385039050809150509392505050565b611f8b828261219c565b611f958282611c6e565b611f9e8161234e565b5050565b6000611fc38473ffffffffffffffffffffffffffffffffffffffff1661239a565b611fd05760019050612194565b600060608573ffffffffffffffffffffffffffffffffffffffff168673ffffffffffffffffffffffffffffffffffffffff1663150b7a02905060e01b612014611530565b89888860405160240161202a9493929190613170565b604051602081830303815290604052907bffffffffffffffffffffffffffffffffffffffffffffffffffffffff19166020820180517bffffffffffffffffffffffffffffffffffffffffffffffffffffffff8381831617835250505050604051612094919061311a565b6000604051808303816000865af19150503d80600081146120d1576040519150601f19603f3d011682016040523d82523d6000602084013e6120d6565b606091505b50915091508161212e576000815111156120f35780518082602001fd5b6040517f08c379a0000000000000000000000000000000000000000000000000000000008152600401612125906132a3565b60405180910390fd5b6000818060200190516121449190810190612797565b905063150b7a0260e01b7bffffffffffffffffffffffffffffffffffffffffffffffffffffffff1916817bffffffffffffffffffffffffffffffffffffffffffffffffffffffff19161493505050505b949350505050565b600073ffffffffffffffffffffffffffffffffffffffff168273ffffffffffffffffffffffffffffffffffffffff16141561220c576040517f08c379a0000000000000000000000000000000000000000000000000000000008152600401612203906133a3565b60405180910390fd5b612215816114be565b15612255576040517f08c379a000000000000000000000000000000000000000000000000000000000815260040161224c906132c3565b60405180910390fd5b816001600083815260200190815260200160002060006101000a81548173ffffffffffffffffffffffffffffffffffffffff021916908373ffffffffffffffffffffffffffffffffffffffff1602179055506122ee600360008473ffffffffffffffffffffffffffffffffffffffff1673ffffffffffffffffffffffffffffffffffffffff168152602001908152602001600020611f10565b808273ffffffffffffffffffffffffffffffffffffffff16600073ffffffffffffffffffffffffffffffffffffffff167fddf252ad1be2c89b69c2b068fc378daa952ba7f163c4a11628f55a4df523b3ef60405160405180910390a45050565b6007805490506008600083815260200190815260200160002081905550600781908060018154018082558091505090600182039060005260206000200160009091929091909150555050565b60008060007fc5d2460186f7233c927e7db2dcc703c0e500b653ca82273b7bfad8045d85a47060001b9050833f91508082141580156123dc57506000801b8214155b92505050919050565b828054600181600116156101000203166002900490600052602060002090601f016020900481019282601f1061242657805160ff1916838001178555612454565b82800160010185558215612454579182015b82811115612453578251825591602001919060010190612438565b5b5090506124619190612491565b5090565b81548183558181111561248c5781836000526020600020918201910161248b9190612491565b5b505050565b6124b391905b808211156124af576000816000905550600101612497565b5090565b90565b6000813590506124c5816136ca565b92915050565b6000813590506124da816136e1565b92915050565b6000813590506124ef816136f8565b92915050565b600081519050612504816136f8565b92915050565b600082601f83011261251b57600080fd5b813561252e612529826134ab565b61347e565b9150808252602083016020830185838301111561254a57600080fd5b612555838284613677565b50505092915050565b600082601f83011261256f57600080fd5b813561258261257d826134d7565b61347e565b9150808252602083016020830185838301111561259e57600080fd5b6125a9838284613677565b50505092915050565b6000813590506125c18161370f565b92915050565b6000602082840312156125d957600080fd5b60006125e7848285016124b6565b91505092915050565b6000806040838503121561260357600080fd5b6000612611858286016124b6565b9250506020612622858286016124b6565b9150509250929050565b60008060006060848603121561264157600080fd5b600061264f868287016124b6565b9350506020612660868287016124b6565b9250506040612671868287016125b2565b9150509250925092565b6000806000806080858703121561269157600080fd5b600061269f878288016124b6565b94505060206126b0878288016124b6565b93505060406126c1878288016125b2565b925050606085013567ffffffffffffffff8111156126de57600080fd5b6126ea8782880161250a565b91505092959194509250565b6000806040838503121561270957600080fd5b6000612717858286016124b6565b9250506020612728858286016124cb565b9150509250929050565b6000806040838503121561274557600080fd5b6000612753858286016124b6565b9250506020612764858286016125b2565b9150509250929050565b60006020828403121561278057600080fd5b600061278e848285016124e0565b91505092915050565b6000602082840312156127a957600080fd5b60006127b7848285016124f5565b91505092915050565b600080600080608085870312156127d657600080fd5b600085013567ffffffffffffffff8111156127f057600080fd5b6127fc8782880161255e565b945050602085013567ffffffffffffffff81111561281957600080fd5b6128258782880161255e565b935050604085013567ffffffffffffffff81111561284257600080fd5b61284e8782880161255e565b925050606061285f878288016125b2565b91505092959194509250565b60006020828403121561287d57600080fd5b600061288b848285016125b2565b91505092915050565b60006128a08383613065565b905092915050565b6128b181613641565b82525050565b6128c0816135cd565b82525050565b6128cf816135bb565b82525050565b6128de816135bb565b82525050565b60006128ef82613528565b6128f98185613561565b93508360208202850161290b85613503565b8060005b8581101561294757848403895281516129288582612894565b945061293383613554565b925060208a0199505060018101905061290f565b50829750879550505050505092915050565b612962816135df565b82525050565b600061297382613533565b61297d8185613572565b935061298d818560208601613686565b612996816136b9565b840191505092915050565b60006129ac82613533565b6129b68185613583565b93506129c6818560208601613686565b80840191505092915050565b60006129dd82613549565b6129e7818561359f565b93506129f7818560208601613686565b612a00816136b9565b840191505092915050565b6000612a1682613549565b612a2081856135b0565b9350612a30818560208601613686565b80840191505092915050565b6000612a478261353e565b612a51818561358e565b9350612a61818560208601613686565b612a6a816136b9565b840191505092915050565b600081546001811660008114612a925760018114612ab757612afb565b607f6002830416612aa381876135b0565b955060ff1983168652808601935050612afb565b60028204612ac581876135b0565b9550612ad085613513565b60005b82811015612af257815481890152600182019150602081019050612ad3565b82880195505050505b505092915050565b6000612b10602b8361359f565b91507f455243373231456e756d657261626c653a206f776e657220696e646578206f7560008301527f74206f6620626f756e64730000000000000000000000000000000000000000006020830152604082019050919050565b6000612b7660328361359f565b91507f4552433732313a207472616e7366657220746f206e6f6e20455243373231526560008301527f63656976657220696d706c656d656e74657200000000000000000000000000006020830152604082019050919050565b6000612bdc601c8361359f565b91507f4552433732313a20746f6b656e20616c7265616479206d696e746564000000006000830152602082019050919050565b6000612c1c601b8361359f565b91507f536166654d6174683a206164646974696f6e206f766572666c6f7700000000006000830152602082019050919050565b6000612c5c60248361359f565b91507f4552433732313a207472616e7366657220746f20746865207a65726f2061646460008301527f72657373000000000000000000000000000000000000000000000000000000006020830152604082019050919050565b6000612cc260198361359f565b91507f4552433732313a20617070726f766520746f2063616c6c6572000000000000006000830152602082019050919050565b6000612d02602c8361359f565b91507f4552433732313a206f70657261746f7220717565727920666f72206e6f6e657860008301527f697374656e7420746f6b656e00000000000000000000000000000000000000006020830152604082019050919050565b6000612d68602a8361359f565b91507f4552433732313a2062616c616e636520717565727920666f7220746865207a6560008301527f726f2061646472657373000000000000000000000000000000000000000000006020830152604082019050919050565b6000612dce60298361359f565b91507f4552433732313a206f776e657220717565727920666f72206e6f6e657869737460008301527f656e7420746f6b656e00000000000000000000000000000000000000000000006020830152604082019050919050565b6000612e3460208361359f565b91507f4552433732313a206d696e7420746f20746865207a65726f20616464726573736000830152602082019050919050565b6000612e74602c8361359f565b91507f4552433732313a20617070726f76656420717565727920666f72206e6f6e657860008301527f697374656e7420746f6b656e00000000000000000000000000000000000000006020830152604082019050919050565b6000612eda60298361359f565b91507f4552433732313a207472616e73666572206f6620746f6b656e2074686174206960008301527f73206e6f74206f776e00000000000000000000000000000000000000000000006020830152604082019050919050565b6000612f40602f8361359f565b91507f4552433732314d657461646174613a2055524920717565727920666f72206e6f60008301527f6e6578697374656e7420746f6b656e00000000000000000000000000000000006020830152604082019050919050565b6000612fa660318361359f565b91507f4552433732313a207472616e736665722063616c6c6572206973206e6f74206f60008301527f776e6572206e6f7220617070726f7665640000000000000000000000000000006020830152604082019050919050565b600061300c602c8361359f565b91507f455243373231456e756d657261626c653a20676c6f62616c20696e646578206f60008301527f7574206f6620626f756e647300000000000000000000000000000000000000006020830152604082019050919050565b600060c08301600083015161307d60008601826130fc565b50602083015184820360208601526130958282612a3c565b915050604083015184820360408601526130af8282612a3c565b915050606083015184820360608601526130c98282612a3c565b91505060808301516130de60808601826130fc565b5060a08301516130f160a08601826128c6565b508091505092915050565b61310581613637565b82525050565b61311481613637565b82525050565b600061312682846129a1565b915081905092915050565b600061313d8285612a75565b91506131498284612a0b565b91508190509392505050565b600060208201905061316a60008301846128d5565b92915050565b600060808201905061318560008301876128b7565b61319260208301866128d5565b61319f604083018561310b565b81810360608301526131b18184612968565b905095945050505050565b600060208201905081810360008301526131d681846128e4565b905092915050565b60006020820190506131f36000830184612959565b92915050565b6000602082019050818103600083015261321381846129d2565b905092915050565b600060a082019050818103600083015261323581886129d2565b9050818103602083015261324981876129d2565b9050818103604083015261325d81866129d2565b905061326c606083018561310b565b61327960808301846128a8565b9695505050505050565b6000602082019050818103600083015261329c81612b03565b9050919050565b600060208201905081810360008301526132bc81612b69565b9050919050565b600060208201905081810360008301526132dc81612bcf565b9050919050565b600060208201905081810360008301526132fc81612c0f565b9050919050565b6000602082019050818103600083015261331c81612c4f565b9050919050565b6000602082019050818103600083015261333c81612cb5565b9050919050565b6000602082019050818103600083015261335c81612cf5565b9050919050565b6000602082019050818103600083015261337c81612d5b565b9050919050565b6000602082019050818103600083015261339c81612dc1565b9050919050565b600060208201905081810360008301526133bc81612e27565b9050919050565b600060208201905081810360008301526133dc81612e67565b9050919050565b600060208201905081810360008301526133fc81612ecd565b9050919050565b6000602082019050818103600083015261341c81612f33565b9050919050565b6000602082019050818103600083015261343c81612f99565b9050919050565b6000602082019050818103600083015261345c81612fff565b9050919050565b6000602082019050613478600083018461310b565b92915050565b6000604051905081810181811067ffffffffffffffff821117156134a157600080fd5b8060405250919050565b600067ffffffffffffffff8211156134c257600080fd5b601f19601f8301169050602081019050919050565b600067ffffffffffffffff8211156134ee57600080fd5b601f19601f8301169050602081019050919050565b6000819050602082019050919050565b60008190508160005260206000209050919050565b600081519050919050565b600081519050919050565b600081519050919050565b600081519050919050565b6000602082019050919050565b600082825260208201905092915050565b600082825260208201905092915050565b600081905092915050565b600082825260208201905092915050565b600082825260208201905092915050565b600081905092915050565b60006135c682613617565b9050919050565b60006135d882613617565b9050919050565b60008115159050919050565b60007fffffffff0000000000000000000000000000000000000000000000000000000082169050919050565b600073ffffffffffffffffffffffffffffffffffffffff82169050919050565b6000819050919050565b600061364c82613653565b9050919050565b600061365e82613665565b9050919050565b600061367082613617565b9050919050565b82818337600083830152505050565b60005b838110156136a4578082015181840152602081019050613689565b838111156136b3576000848401525b50505050565b6000601f19601f8301169050919050565b6136d3816135bb565b81146136de57600080fd5b50565b6136ea816135df565b81146136f557600080fd5b50565b613701816135eb565b811461370c57600080fd5b50565b61371881613637565b811461372357600080fd5b5056fea365627a7a7231582073dfd1f0068952bd3105b471c272d7749af20c8c946ca79dca0667e633f4bbfc6c6578706572696d656e74616cf564736f6c63430005100040",
  "source": "pragma solidity >=0.4.21 <0.7.0;\r\npragma experimental ABIEncoderV2;\r\n\r\nimport \"@openzeppelin/contracts/math/SafeMath.sol\";\r\nimport \"@openzeppelin/contracts/token/ERC721/ERC721Full.sol\";\r\n\r\ncontract ArtFactory is ERC721Full{\r\n\r\n      \r\n    using SafeMath for uint256;\r\n\r\n    uint256 count;\r\n    struct Art{\r\n        uint256 tokenId;\r\n        string name;\r\n        string ipfsHash;\r\n        string description;\r\n        uint256 price;\r\n        address owner;\r\n    }\r\n\r\n    Art[] arts;\r\n\r\n    mapping (uint256 => address) public artToOwner;\r\n    mapping (address => uint) ownerArtCount;\r\n    mapping (uint256 => address) artApprovals;\r\n    \r\n    event artWorkAdded(string _name,string _ipfsHash,string _description, uint _amount ,address ownerAddress);\r\n    event Approval(address indexed _owner, address indexed _approved, uint256 indexed _tokenId);\r\n    event Transfer(address indexed _from, address indexed _to, uint256 indexed _tokenId);\r\n\r\n      constructor() ERC721Full('ArtNft','ARTNFT') public{}\r\n\r\n\r\n    function addArt(string memory _name, string memory _ipfsHash, string memory _description, uint _amount ) public{\r\n    uint256 tokenId = arts.push(Art(count,_name,_ipfsHash,_description,_amount,msg.sender))-1;\r\n    artToOwner[count] = msg.sender;\r\n    ownerArtCount[msg.sender]++;\r\n    _safeMint(msg.sender, count);\r\n    count++;\r\n\r\n    emit artWorkAdded(_name, _ipfsHash, _description, _amount, msg.sender);\r\n    }\r\n\r\n    function approve (address _to, uint256 _tokenId) public{\r\n        artApprovals[_tokenId] = _to;\r\n        emit Approval(msg.sender, _to, _tokenId);\r\n    }\r\n\r\n    function _transfer(address _from, address _to, uint256 _tokenId) private{\r\n    arts[_tokenId].owner = _to;\r\n    ownerArtCount[_to] = ownerArtCount[_to].add(1);\r\n    ownerArtCount[_from] = ownerArtCount[_from].sub(1);\r\n    artToOwner[_tokenId] = _to;\r\n    emit Transfer(_from, _to, _tokenId);\r\n    }\r\n\r\n    function safeTransferFrom(address _from, address _to, uint256 _tokenId, bytes memory _data) public{\r\n        require(artToOwner[_tokenId] == msg.sender || artApprovals[_tokenId] == msg.sender, \"ERC721: transfer caller is not owner nor approved\");\r\n       // approve(_to,_tokenId);\r\n        _transfer(_from, _to, _tokenId);\r\n    }\r\n\r\n    function getOwner(uint256 tokenId)public view returns(address){\r\n        address owner = artToOwner[tokenId];\r\n        return owner;\r\n    }\r\n\r\n    function getAllTokens() external view returns(Art[] memory){\r\n        return arts;\r\n    }\r\n\r\n}",
  "sourcePath": "I:/Blockchain Internship/Project2_Art_NFTs_App/contracts/ArtFactory.sol",
  "compiler": {
    "name": "solc",
    "version": "0.5.16+commit.9c3226ce.Emscripten.clang"
  },
  "schemaVersion": "3.4.1",
  "updatedAt": "2021-07-10T18:38:34.488Z",
  "networkType": "ethereum",
  "devdoc": {
    "methods": {
      "balanceOf(address)": {
        "details": "Gets the balance of the specified address.",
        "params": {
          "owner": "address to query the balance of"
        },
        "return": "uint256 representing the amount owned by the passed address"
      },
      "baseURI()": {
        "details": "Returns the base URI set via {_setBaseURI}. This will be automatically added as a preffix in {tokenURI} to each token's URI, when they are non-empty.    * _Available since v2.5.0._"
      },
      "getApproved(uint256)": {
        "details": "Gets the approved address for a token ID, or zero if no address set Reverts if the token ID does not exist.",
        "params": {
          "tokenId": "uint256 ID of the token to query the approval of"
        },
        "return": "address currently approved for the given token ID"
      },
      "isApprovedForAll(address,address)": {
        "details": "Tells whether an operator is approved by a given owner.",
        "params": {
          "operator": "operator address which you want to query the approval of",
          "owner": "owner address which you want to query the approval of"
        },
        "return": "bool whether the given operator is approved by the given owner"
      },
      "name()": {
        "details": "Gets the token name.",
        "return": "string representing the token name"
      },
      "ownerOf(uint256)": {
        "details": "Gets the owner of the specified token ID.",
        "params": {
          "tokenId": "uint256 ID of the token to query the owner of"
        },
        "return": "address currently marked as the owner of the given token ID"
      },
      "safeTransferFrom(address,address,uint256)": {
        "details": "Safely transfers the ownership of a given token ID to another address If the target address is a contract, it must implement {IERC721Receiver-onERC721Received}, which is called upon a safe transfer, and return the magic value `bytes4(keccak256(\"onERC721Received(address,address,uint256,bytes)\"))`; otherwise, the transfer is reverted. Requires the msg.sender to be the owner, approved, or operator",
        "params": {
          "from": "current owner of the token",
          "to": "address to receive the ownership of the given token ID",
          "tokenId": "uint256 ID of the token to be transferred"
        }
      },
      "setApprovalForAll(address,bool)": {
        "details": "Sets or unsets the approval of a given operator An operator is allowed to transfer all tokens of the sender on their behalf.",
        "params": {
          "approved": "representing the status of the approval to be set",
          "to": "operator address to set the approval"
        }
      },
      "supportsInterface(bytes4)": {
        "details": "See {IERC165-supportsInterface}.     * Time complexity O(1), guaranteed to always use less than 30 000 gas."
      },
      "symbol()": {
        "details": "Gets the token symbol.",
        "return": "string representing the token symbol"
      },
      "tokenByIndex(uint256)": {
        "details": "Gets the token ID at a given index of all the tokens in this contract Reverts if the index is greater or equal to the total number of tokens.",
        "params": {
          "index": "uint256 representing the index to be accessed of the tokens list"
        },
        "return": "uint256 token ID at the given index of the tokens list"
      },
      "tokenOfOwnerByIndex(address,uint256)": {
        "details": "Gets the token ID at a given index of the tokens list of the requested owner.",
        "params": {
          "index": "uint256 representing the index to be accessed of the requested tokens list",
          "owner": "address owning the tokens list to be accessed"
        },
        "return": "uint256 token ID at the given index of the tokens list owned by the requested address"
      },
      "tokenURI(uint256)": {
        "details": "Returns the URI for a given token ID. May return an empty string.     * If the token's URI is non-empty and a base URI was set (via {_setBaseURI}), it will be added to the token ID's URI as a prefix.     * Reverts if the token ID does not exist."
      },
      "totalSupply()": {
        "details": "Gets the total amount of tokens stored by the contract.",
        "return": "uint256 representing the total amount of tokens"
      },
      "transferFrom(address,address,uint256)": {
        "details": "Transfers the ownership of a given token ID to another address. Usage of this method is discouraged, use {safeTransferFrom} whenever possible. Requires the msg.sender to be the owner, approved, or operator.",
        "params": {
          "from": "current owner of the token",
          "to": "address to receive the ownership of the given token ID",
          "tokenId": "uint256 ID of the token to be transferred"
        }
      }
    }
  },
  "userdoc": {
    "methods": {}
  }
}